:100000000C9436000C9440000C9440000C94420078
:100010000C9440000C9440000C9440000C94400060
:100020000C9440000C9440000C9440000C94400050
:100030000C9440000C9440000C9440000C94400040
:100040000C9440000C9440000C9440000C94400030
:100050000C9440000C9440000C9440000C94400020
:100060000C9440000C9440000C94400011241FBEDE
:10007000CFEFD4E0DEBFCDBF0E945C000C945F00E8
:100080000C9400001F920F920FB60F9211241D9A2C
:100090001C9A0F900FBE0F901F901895EBE6F0E0A2
:1000A000808180688083E8E6F0E0808181608083E1
:1000B0007894259A249A08950E944E00FFCFF894D0
:0200C000FFCF70
:00000001FF
