:100000000C9436000C9453000C9453000C94530041
:100010000C9453000C9453000C9453000C94530014
:100020000C9453000C9453000C9453000C94530004
:100030000C9453000C9453000C9453000C945300F4
:100040000C9455000C9453000C9453000C945300E2
:100050000C9453000C9453000C9453000C945300D4
:100060000C9453000C9453000C94530011241FBEA5
:10007000CFEFD4E0DEBFCDBF11E0A0E0B1E0E0E023
:10008000F1E002C005900D92A030B107D9F721E050
:10009000A0E0B1E001C01D92A130B207E1F70E94DB
:1000A0007B000C947E000C9400001F920F920FB600
:1000B0000F9211248F9380910001823320F48F5F7F
:1000C0008093000103C0109200011D9A8F910F9040
:1000D0000FBE0F901F90189585B5846085BD85B5BE
:1000E000816085BD80E284B9EEE6F0E080818160C8
:1000F0008083789408950E946C00FFCFF894FFCF1E
:00000001FF
