S01000004D435520554152542E73726563D3
S11300000C9436000C9453000C9453000C9453003D
S11300100C9453000C9453000C9453000C94530010
S11300200C9453000C9453000C9453000C94530000
S11300300C9453000C9453000C9453000C945300F0
S11300400C9453000C9453000C9453000C945300E0
S11300500C9453000C9453000C9453000C945300D0
S11300600C9453000C9453000C94530011241FBEA1
S1130070CFEFD4E0DEBFCDBF11E0A0E0B1E0E4E912
S1130080F2E002C005900D92AC30B107D9F721E03F
S1130090ACE0B1E001C01D92A231B207E1F70E94C9
S11300A073000C9448010C940000E0ECF0E09081A3
S11300B095FFFDCF8093C6000895E0ECF0E08081C9
S11300C08823ECF78091C60008951092C50087E656
S11300D08093C400E1ECF0E08081886080838081BB
S11300E0806180830895CF93DF93CDB7DEB7CB5182
S11300F0D1400FB6F894DEBF0FBECDBF0E9465009D
S1130100FE01F3958EE0DF01982F1D929A95E9F791
S113011092E0938325E530E0318720872CE031E0BD
S1130120D9011396FC93EE9312973E96DF011D922C
S11301308A95E9F781E083838DE590E09387828750
S1130140D901ED93FC9380E091E00E94DA00CE01A6
S113015001960E94B000CE0101960E94DA00F7CF0A
S11301600F931F93CF93DF93E0910C01F0910D0156
S1130170238120FD03C080E090E017C0C92FD82F51
S1130180082F192F80910C0190910D010E940A01F2
S11301908F3F2FEF920779F3F80181938F010A972C
S11301A089F7319710828D2F9C2FDF91CF911F916A
S11301B00F9108950F931F93CF93DF93E0910E0156
S11301C0F0910F01238121FF1BC08C01D0E0C0E01E
S11301D0F80181918F0160910E0170910F01DB0193
S11301E01896ED91FC911997882331F00995892B84
S11301F079F3DFEFCFEFECCF8AE00995892B19F083
S11302008FEF9FEF02C08D2F9C2FDF91CF911F9115
S11302100F910895CF93DF93EC012B8120FF33C01E
S113022026FF0AC02F7B2B838E819F8101969F839B
S11302308E838A8190E029C022FF0FC0E881F98172
S11302408081082E000C990B009719F420622B83EF
S11302501AC03196F983E8830EC0EA85FB850995B7
S113026097FF09C02B81019611F080E201C080E163
S1130270822B8B8308C02E813F812F5F3F4F3F83AA
S11302802E83992702C08FEF9FEFDF91CF910895BE
S1070290F894FFCF0C
S10F0294537461727475702E2E2E0D00D0
S9030000FC
