:100000000C9436000C9440000C9440000C9440007A
:100010000C9440000C9440000C9440000C94400060
:100020000C9440000C9440000C9440000C94400050
:100030000C9440000C9440000C9440000C94400040
:100040000C9440000C9440000C9440000C94400030
:100050000C9440000C9440000C9440000C94400020
:100060000C9440000C9440000C94400011241FBEDE
:10007000CFEFD4E0DEBFCDBF0E9460000C946700DC
:100080000C9400001092C50087E68093C400E1EC58
:10009000F0E0808188608083808180618083089522
:1000A000E0ECF0E0908195FFFDCF8093C6000895CD
:1000B000E0ECF0E080818823ECF78091C6000895A1
:1000C0000E9442000E9458000E945000FBCFF8940A
:0200D000FFCF60
:00000001FF
