:100000000C9436000C9453000C9453000C94530041
:100010000C9453000C9453000C9453000C94530014
:100020000C9453000C9453000C9453000C94530004
:100030000C9453000C9453000C9453000C945300F4
:100040000C9455000C9453000C9453000C945300E2
:100050000C9453000C9453000C9453000C945300D4
:100060000C9453000C9453000C94530011241FBEA5
:10007000CFEFD4E0DEBFCDBF11E0A0E0B1E0ECE017
:10008000F1E002C005900D92A030B107D9F721E050
:10009000A0E0B1E001C01D92A130B207E1F70E94DB
:1000A00081000C9484000C9400001F920F920FB6F4
:1000B0000F9211248F93809100018A3028F48F5F72
:1000C000809300011C9A03C0109200011A9A8F912C
:1000D0000F900FBE0F901F90189585B5846085BD59
:1000E00085B5816085BD84E084B980E184B9EEE6A0
:1000F000F0E080818160808380818160808378945A
:0C01000008950E946D00FFCFF894FFCF1F
:00000001FF
