S01A000050616C696E64726F6D65206275696C6465722E73726563F8
S11300000C9436000C9453000C9453000C9453003D
S11300100C9453000C9453000C9453000C94530010
S11300200C9453000C9453000C9453000C94530000
S11300300C9453000C9453000C9453000C945300F0
S11300400C9453000C9453000C9453000C945300E0
S11300500C9453000C9453000C9453000C945300D0
S11300600C9453000C9453000C94530011241FBEA1
S1130070CFEFD4E0DEBFCDBF11E0A0E0B1E0ECEB08
S1130080F3E002C005900D92AC31B107D9F721E03D
S1130090ACE1B1E001C01D92A232B207E1F70E94C7
S11300A0C3000C94DC010C940000E0ECF0E09081BF
S11300B095FFFDCF8093C6000895E0ECF0E08081C9
S11300C08823ECF78091C6000895CF92DF92EF92D7
S11300D0FF920F931F93CF93DF93CDB7DEB764974F
S11300E00FB6F894DEBF0FBECDBF80E091E00E9452
S11300F03201CE0101967C010E940101F7010190B9
S11301000020E9F731978F010E191F091016110607
S113011064F46701C00ED11EF70181917F0190E064
S11301200E942B01EC14FD04B9F7C801019772F089
S1130130CE010196080F191F7C01F80182918F01ED
S113014090E00E942B010E151F05B9F764960FB6B7
S1130150F894DEBF0FBECDBFDF91CF911F910F91F9
S1130160FF90EF90DF90CF9008951092C50087E63E
S11301708093C400E1ECF0E080818860808380811A
S1130180806180830895CF93DF93CDB7DEB76C97FA
S11301900FB6F894DEBF0FBECDBF0E94B5008EE04F
S11301A0DE011196FD01982F11929A95E9F792E0DC
S11301B09C8325E530E03A8729872CE131E0F90179
S11301C0B383A2831E96FD0111928A95E9F781E01B
S11301D08A8B8DE590E09A8F898FF901B183A08392
S11301E080E191E00E9432010E94650080E090E08D
S11301F06C960FB6F894DEBF0FBECDBFDF91CF91E2
S113020008950F931F93CF93DF93E0911C01F09116
S11302101D01238120FD03C080E090E017C0C92F99
S1130220D82F082F192F80911C0190911D010E9435
S113023062018F3F2FEF920779F3F80181938F01C9
S11302400A9789F7319710828D2F9C2FDF91CF91D8
S11302501F910F91089560911E0170911F010E94DA
S1130260A00108950F931F93CF93DF93E0911E0194
S1130270F0911F01238121FF1BC08C01D0E0C0E05D
S1130280F80181918F0160911E0170911F01DB01C2
S11302901896ED91FC911997882331F00995892BD3
S11302A079F3DFEFCFEFECCF8AE00995892B19F0D2
S11302B08FEF9FEF02C08D2F9C2FDF91CF911F9165
S11302C00F910895CF93DF93EC012B8120FF33C06E
S11302D026FF0AC02F7B2B838E819F8101969F83EB
S11302E08E838A8190E029C022FF0FC0E881F981C2
S11302F08081082E000C990B009719F420622B833F
S11303001AC03196F983E8830EC0EA85FB85099506
S113031097FF09C02B81019611F080E201C080E1B2
S1130320822B8B8308C02E813F812F5F3F4F3F83F9
S11303302E83992702C08FEF9FEFDF91CF9108950D
S11303400F931F93CF93DF93FB01238121FD03C000
S11303508FEF9FEF2CC022FF16C046815781248166
S113036035814217530744F4A081B1819D012F5F69
S11303703F4F318320838C93268137812F5F3F4FFA
S11303803783268314C08B01EC01FB010084F185C3
S1130390E02D0995892BE1F6D80116968D919C9153
S11303A01797019617969C938E931697CE01DF911B
S10F03B0CF911F910F910895F894FFCF96
S11303BC577269746520736F6D657468696E670034
S10F03CC537461727475702E2E2E0D0097
S9030000FC
