:100000000C9436000C9440000C9440000C9440007A
:100010000C9440000C9440000C9440000C94400060
:100020000C9440000C9440000C9440000C94400050
:100030000C9440000C9440000C9440000C94400040
:100040000C9440000C9440000C9440000C94400030
:100050000C9440000C9440000C9440000C94400020
:100060000C9440000C9440000C94400011241FBEDE
:10007000CFEFD4E0DEBFCDBF0E9442000C949700CA
:100080000C940000249A239A229A219A2C9A2FEFFA
:1000900089E698E1215080409040E1F700C00000DF
:1000A0002A9A2FEF89E698E1215080409040E1F7AD
:1000B00000C000002B9A2FEF89E698E12150804084
:1000C0009040E1F700C00000299A2FEF89E698E1FF
:1000D000215080409040E1F700C000002C982FEFA5
:1000E00089E698E1215080409040E1F700C000008F
:1000F0002A982FEF89E698E1215080409040E1F75F
:1001000000C000002B982FEF89E698E12150804035
:100110009040E1F700C0000029982FEF89E698E1B0
:10012000215080409040E1F700C00000AFCFF8942C
:02013000FFCFFF
:00000001FF
